{
  "contractName": "poultry",
  "abi": [
    {
      "inputs": [],
      "stateMutability": "nonpayable",
      "type": "constructor"
    },
    {
      "inputs": [
        {
          "internalType": "string",
          "name": "cemail",
          "type": "string"
        },
        {
          "internalType": "string",
          "name": "cretailer",
          "type": "string"
        },
        {
          "internalType": "address",
          "name": "consumer",
          "type": "address"
        },
        {
          "internalType": "string",
          "name": "cname",
          "type": "string"
        },
        {
          "internalType": "string",
          "name": "clocation",
          "type": "string"
        },
        {
          "internalType": "string",
          "name": "ckg",
          "type": "string"
        },
        {
          "internalType": "string",
          "name": "cproducttype",
          "type": "string"
        }
      ],
      "name": "addConsumer",
      "outputs": [],
      "stateMutability": "nonpayable",
      "type": "function"
    },
    {
      "inputs": [],
      "name": "viewConsumers",
      "outputs": [
        {
          "internalType": "string[]",
          "name": "",
          "type": "string[]"
        },
        {
          "internalType": "string[]",
          "name": "",
          "type": "string[]"
        },
        {
          "internalType": "uint256[]",
          "name": "",
          "type": "uint256[]"
        },
        {
          "internalType": "uint256[]",
          "name": "",
          "type": "uint256[]"
        },
        {
          "internalType": "address[]",
          "name": "",
          "type": "address[]"
        },
        {
          "internalType": "string[]",
          "name": "",
          "type": "string[]"
        },
        {
          "internalType": "string[]",
          "name": "",
          "type": "string[]"
        },
        {
          "internalType": "string[]",
          "name": "",
          "type": "string[]"
        },
        {
          "internalType": "string[]",
          "name": "",
          "type": "string[]"
        }
      ],
      "stateMutability": "view",
      "type": "function",
      "constant": true
    },
    {
      "inputs": [
        {
          "internalType": "uint256",
          "name": "cid",
          "type": "uint256"
        },
        {
          "internalType": "uint256",
          "name": "cstatus",
          "type": "uint256"
        }
      ],
      "name": "updateOrder1",
      "outputs": [],
      "stateMutability": "nonpayable",
      "type": "function"
    },
    {
      "inputs": [
        {
          "internalType": "string",
          "name": "oemail",
          "type": "string"
        },
        {
          "internalType": "address",
          "name": "retailer",
          "type": "address"
        },
        {
          "internalType": "string",
          "name": "rname",
          "type": "string"
        },
        {
          "internalType": "string",
          "name": "rlocation",
          "type": "string"
        },
        {
          "internalType": "string",
          "name": "rkgs",
          "type": "string"
        },
        {
          "internalType": "string",
          "name": "rtype",
          "type": "string"
        }
      ],
      "name": "addOrder",
      "outputs": [],
      "stateMutability": "nonpayable",
      "type": "function"
    },
    {
      "inputs": [],
      "name": "viewOrders",
      "outputs": [
        {
          "internalType": "string[]",
          "name": "",
          "type": "string[]"
        },
        {
          "internalType": "uint256[]",
          "name": "",
          "type": "uint256[]"
        },
        {
          "internalType": "address[]",
          "name": "",
          "type": "address[]"
        },
        {
          "internalType": "uint256[]",
          "name": "",
          "type": "uint256[]"
        },
        {
          "internalType": "string[]",
          "name": "",
          "type": "string[]"
        },
        {
          "internalType": "string[]",
          "name": "",
          "type": "string[]"
        },
        {
          "internalType": "string[]",
          "name": "",
          "type": "string[]"
        },
        {
          "internalType": "string[]",
          "name": "",
          "type": "string[]"
        }
      ],
      "stateMutability": "view",
      "type": "function",
      "constant": true
    },
    {
      "inputs": [
        {
          "internalType": "uint256",
          "name": "oid",
          "type": "uint256"
        },
        {
          "internalType": "uint256",
          "name": "status",
          "type": "uint256"
        }
      ],
      "name": "updateOrder",
      "outputs": [],
      "stateMutability": "nonpayable",
      "type": "function"
    }
  ],
  "bytecode": "0x608060405234801561001057600080fd5b5060006011819055506000601281905550611e9a806100306000396000f3fe608060405234801561001057600080fd5b50600436106100625760003560e01c80631764d4be146100675780632f8ed74f1461008d578063587b71a6146100a957806390bd691e146100c5578063efa410de146100e1578063f5218908146100fd575b600080fd5b61006f610122565b604051610084999897969594939291906114e6565b60405180910390f35b6100a760048036038101906100a291906115f2565b61077d565b005b6100c360048036038101906100be91906115f2565b6107ee565b005b6100df60048036038101906100da9190611793565b61085f565b005b6100fb60048036038101906100f691906118ac565b610a42565b005b610105610c5b565b6040516101199897969594939291906119f6565b60405180910390f35b606080606080606080606080606060086000600760066001600260036004600588805480602002602001604051908101604052809291908181526020016000905b8282101561020f57838290600052602060002001805461018290611adb565b80601f01602080910402602001604051908101604052809291908181526020018280546101ae90611adb565b80156101fb5780601f106101d0576101008083540402835291602001916101fb565b820191906000526020600020905b8154815290600101906020018083116101de57829003601f168201915b505050505081526020019060010190610163565b50505050985087805480602002602001604051908101604052809291908181526020016000905b828210156102e257838290600052602060002001805461025590611adb565b80601f016020809104026020016040519081016040528092919081815260200182805461028190611adb565b80156102ce5780601f106102a3576101008083540402835291602001916102ce565b820191906000526020600020905b8154815290600101906020018083116102b157829003601f168201915b505050505081526020019060010190610236565b5050505097508680548060200260200160405190810160405280929190818152602001828054801561033357602002820191906000526020600020905b81548152602001906001019080831161031f575b505050505096508580548060200260200160405190810160405280929190818152602001828054801561038557602002820191906000526020600020905b815481526020019060010190808311610371575b505050505095508480548060200260200160405190810160405280929190818152602001828054801561040d57602002820191906000526020600020905b8160009054906101000a900473ffffffffffffffffffffffffffffffffffffffff1673ffffffffffffffffffffffffffffffffffffffff16815260200190600101908083116103c3575b5050505050945083805480602002602001604051908101604052809291908181526020016000905b828210156104e157838290600052602060002001805461045490611adb565b80601f016020809104026020016040519081016040528092919081815260200182805461048090611adb565b80156104cd5780601f106104a2576101008083540402835291602001916104cd565b820191906000526020600020905b8154815290600101906020018083116104b057829003601f168201915b505050505081526020019060010190610435565b50505050935082805480602002602001604051908101604052809291908181526020016000905b828210156105b457838290600052602060002001805461052790611adb565b80601f016020809104026020016040519081016040528092919081815260200182805461055390611adb565b80156105a05780601f10610575576101008083540402835291602001916105a0565b820191906000526020600020905b81548152906001019060200180831161058357829003601f168201915b505050505081526020019060010190610508565b50505050925081805480602002602001604051908101604052809291908181526020016000905b828210156106875783829060005260206000200180546105fa90611adb565b80601f016020809104026020016040519081016040528092919081815260200182805461062690611adb565b80156106735780601f1061064857610100808354040283529160200191610673565b820191906000526020600020905b81548152906001019060200180831161065657829003601f168201915b5050505050815260200190600101906105db565b50505050915080805480602002602001604051908101604052809291908181526020016000905b8282101561075a5783829060005260206000200180546106cd90611adb565b80601f01602080910402602001604051908101604052809291908181526020018280546106f990611adb565b80156107465780601f1061071b57610100808354040283529160200191610746565b820191906000526020600020905b81548152906001019060200180831161072957829003601f168201915b5050505050815260200190600101906106ae565b505050509050985098509850985098509850985098509850909192939495969798565b60005b6006805490508110156107e95782600682815481106107a2576107a1611b0c565b5b9060005260206000200154036107d65781600782815481106107c7576107c6611b0c565b5b90600052602060002001819055505b80806107e190611b6a565b915050610780565b505050565b60005b600e8054905081101561085a5782600e828154811061081357610812611b0c565b5b9060005260206000200154036108475781600f828154811061083857610837611b0c565b5b90600052602060002001819055505b808061085290611b6a565b9150506107f1565b505050565b6001601260008282546108729190611bb2565b925050819055506010869080600181540180825580915050600190039060005260206000200160009091909190915090816108ad9190611d92565b50600e6012549080600181540180825580915050600190039060005260206000200160009091909190915055600c8290806001815401808255809150506001900390600052602060002001600090919091909150908161090d9190611d92565b50600b839080600181540180825580915050600190039060005260206000200160009091909190915090816109429190611d92565b50600a849080600181540180825580915050600190039060005260206000200160009091909190915090816109779190611d92565b506009859080600181540180825580915050600190039060005260206000200160009091909190916101000a81548173ffffffffffffffffffffffffffffffffffffffff021916908373ffffffffffffffffffffffffffffffffffffffff160217905550600d81908060018154018082558091505060019003906000526020600020016000909190919091509081610a0f9190611d92565b50600f60009080600181540180825580915050600190039060005260206000200160009091909190915055505050505050565b600160116000828254610a559190611bb2565b92505081905550600887908060018154018082558091505060019003906000526020600020016000909190919091509081610a909190611d92565b50600086908060018154018082558091505060019003906000526020600020016000909190919091509081610ac59190611d92565b50600660115490806001815401808255809150506001900390600052602060002001600090919091909150556001859080600181540180825580915050600190039060005260206000200160009091909190916101000a81548173ffffffffffffffffffffffffffffffffffffffff021916908373ffffffffffffffffffffffffffffffffffffffff160217905550600284908060018154018082558091505060019003906000526020600020016000909190919091509081610b889190611d92565b50600383908060018154018082558091505060019003906000526020600020016000909190919091509081610bbd9190611d92565b50600482908060018154018082558091505060019003906000526020600020016000909190919091509081610bf29190611d92565b50600581908060018154018082558091505060019003906000526020600020016000909190919091509081610c279190611d92565b5060076000908060018154018082558091505060019003906000526020600020016000909190919091505550505050505050565b6060806060806060806060806010600e6009600f600a600b600d600c87805480602002602001604051908101604052809291908181526020016000905b82821015610d44578382906000526020600020018054610cb790611adb565b80601f0160208091040260200160405190810160405280929190818152602001828054610ce390611adb565b8015610d305780601f10610d0557610100808354040283529160200191610d30565b820191906000526020600020905b815481529060010190602001808311610d1357829003601f168201915b505050505081526020019060010190610c98565b50505050975086805480602002602001604051908101604052809291908181526020018280548015610d9557602002820191906000526020600020905b815481526020019060010190808311610d81575b5050505050965085805480602002602001604051908101604052809291908181526020018280548015610e1d57602002820191906000526020600020905b8160009054906101000a900473ffffffffffffffffffffffffffffffffffffffff1673ffffffffffffffffffffffffffffffffffffffff1681526020019060010190808311610dd3575b5050505050955084805480602002602001604051908101604052809291908181526020018280548015610e6f57602002820191906000526020600020905b815481526020019060010190808311610e5b575b5050505050945083805480602002602001604051908101604052809291908181526020016000905b82821015610f43578382906000526020600020018054610eb690611adb565b80601f0160208091040260200160405190810160405280929190818152602001828054610ee290611adb565b8015610f2f5780601f10610f0457610100808354040283529160200191610f2f565b820191906000526020600020905b815481529060010190602001808311610f1257829003601f168201915b505050505081526020019060010190610e97565b50505050935082805480602002602001604051908101604052809291908181526020016000905b82821015611016578382906000526020600020018054610f8990611adb565b80601f0160208091040260200160405190810160405280929190818152602001828054610fb590611adb565b80156110025780601f10610fd757610100808354040283529160200191611002565b820191906000526020600020905b815481529060010190602001808311610fe557829003601f168201915b505050505081526020019060010190610f6a565b50505050925081805480602002602001604051908101604052809291908181526020016000905b828210156110e957838290600052602060002001805461105c90611adb565b80601f016020809104026020016040519081016040528092919081815260200182805461108890611adb565b80156110d55780601f106110aa576101008083540402835291602001916110d5565b820191906000526020600020905b8154815290600101906020018083116110b857829003601f168201915b50505050508152602001906001019061103d565b50505050915080805480602002602001604051908101604052809291908181526020016000905b828210156111bc57838290600052602060002001805461112f90611adb565b80601f016020809104026020016040519081016040528092919081815260200182805461115b90611adb565b80156111a85780601f1061117d576101008083540402835291602001916111a8565b820191906000526020600020905b81548152906001019060200180831161118b57829003601f168201915b505050505081526020019060010190611110565b505050509050975097509750975097509750975097509091929394959697565b600081519050919050565b600082825260208201905092915050565b6000819050602082019050919050565b600081519050919050565b600082825260208201905092915050565b60005b83811015611242578082015181840152602081019050611227565b60008484015250505050565b6000601f19601f8301169050919050565b600061126a82611208565b6112748185611213565b9350611284818560208601611224565b61128d8161124e565b840191505092915050565b60006112a4838361125f565b905092915050565b6000602082019050919050565b60006112c4826111dc565b6112ce81856111e7565b9350836020820285016112e0856111f8565b8060005b8581101561131c57848403895281516112fd8582611298565b9450611308836112ac565b925060208a019950506001810190506112e4565b50829750879550505050505092915050565b600081519050919050565b600082825260208201905092915050565b6000819050602082019050919050565b6000819050919050565b61136d8161135a565b82525050565b600061137f8383611364565b60208301905092915050565b6000602082019050919050565b60006113a38261132e565b6113ad8185611339565b93506113b88361134a565b8060005b838110156113e95781516113d08882611373565b97506113db8361138b565b9250506001810190506113bc565b5085935050505092915050565b600081519050919050565b600082825260208201905092915050565b6000819050602082019050919050565b600073ffffffffffffffffffffffffffffffffffffffff82169050919050565b600061144d82611422565b9050919050565b61145d81611442565b82525050565b600061146f8383611454565b60208301905092915050565b6000602082019050919050565b6000611493826113f6565b61149d8185611401565b93506114a883611412565b8060005b838110156114d95781516114c08882611463565b97506114cb8361147b565b9250506001810190506114ac565b5085935050505092915050565b6000610120820190508181036000830152611501818c6112b9565b90508181036020830152611515818b6112b9565b90508181036040830152611529818a611398565b9050818103606083015261153d8189611398565b905081810360808301526115518188611488565b905081810360a083015261156581876112b9565b905081810360c083015261157981866112b9565b905081810360e083015261158d81856112b9565b90508181036101008301526115a281846112b9565b90509a9950505050505050505050565b6000604051905090565b600080fd5b600080fd5b6115cf8161135a565b81146115da57600080fd5b50565b6000813590506115ec816115c6565b92915050565b60008060408385031215611609576116086115bc565b5b6000611617858286016115dd565b9250506020611628858286016115dd565b9150509250929050565b600080fd5b600080fd5b7f4e487b7100000000000000000000000000000000000000000000000000000000600052604160045260246000fd5b6116748261124e565b810181811067ffffffffffffffff821117156116935761169261163c565b5b80604052505050565b60006116a66115b2565b90506116b2828261166b565b919050565b600067ffffffffffffffff8211156116d2576116d161163c565b5b6116db8261124e565b9050602081019050919050565b82818337600083830152505050565b600061170a611705846116b7565b61169c565b90508281526020810184848401111561172657611725611637565b5b6117318482856116e8565b509392505050565b600082601f83011261174e5761174d611632565b5b813561175e8482602086016116f7565b91505092915050565b61177081611442565b811461177b57600080fd5b50565b60008135905061178d81611767565b92915050565b60008060008060008060c087890312156117b0576117af6115bc565b5b600087013567ffffffffffffffff8111156117ce576117cd6115c1565b5b6117da89828a01611739565b96505060206117eb89828a0161177e565b955050604087013567ffffffffffffffff81111561180c5761180b6115c1565b5b61181889828a01611739565b945050606087013567ffffffffffffffff811115611839576118386115c1565b5b61184589828a01611739565b935050608087013567ffffffffffffffff811115611866576118656115c1565b5b61187289828a01611739565b92505060a087013567ffffffffffffffff811115611893576118926115c1565b5b61189f89828a01611739565b9150509295509295509295565b600080600080600080600060e0888a0312156118cb576118ca6115bc565b5b600088013567ffffffffffffffff8111156118e9576118e86115c1565b5b6118f58a828b01611739565b975050602088013567ffffffffffffffff811115611916576119156115c1565b5b6119228a828b01611739565b96505060406119338a828b0161177e565b955050606088013567ffffffffffffffff811115611954576119536115c1565b5b6119608a828b01611739565b945050608088013567ffffffffffffffff811115611981576119806115c1565b5b61198d8a828b01611739565b93505060a088013567ffffffffffffffff8111156119ae576119ad6115c1565b5b6119ba8a828b01611739565b92505060c088013567ffffffffffffffff8111156119db576119da6115c1565b5b6119e78a828b01611739565b91505092959891949750929550565b6000610100820190508181036000830152611a11818b6112b9565b90508181036020830152611a25818a611398565b90508181036040830152611a398189611488565b90508181036060830152611a4d8188611398565b90508181036080830152611a6181876112b9565b905081810360a0830152611a7581866112b9565b905081810360c0830152611a8981856112b9565b905081810360e0830152611a9d81846112b9565b90509998505050505050505050565b7f4e487b7100000000000000000000000000000000000000000000000000000000600052602260045260246000fd5b60006002820490506001821680611af357607f821691505b602082108103611b0657611b05611aac565b5b50919050565b7f4e487b7100000000000000000000000000000000000000000000000000000000600052603260045260246000fd5b7f4e487b7100000000000000000000000000000000000000000000000000000000600052601160045260246000fd5b6000611b758261135a565b91507fffffffffffffffffffffffffffffffffffffffffffffffffffffffffffffffff8203611ba757611ba6611b3b565b5b600182019050919050565b6000611bbd8261135a565b9150611bc88361135a565b9250828201905080821115611be057611bdf611b3b565b5b92915050565b60008190508160005260206000209050919050565b60006020601f8301049050919050565b600082821b905092915050565b600060088302611c487fffffffffffffffffffffffffffffffffffffffffffffffffffffffffffffffff82611c0b565b611c528683611c0b565b95508019841693508086168417925050509392505050565b6000819050919050565b6000611c8f611c8a611c858461135a565b611c6a565b61135a565b9050919050565b6000819050919050565b611ca983611c74565b611cbd611cb582611c96565b848454611c18565b825550505050565b600090565b611cd2611cc5565b611cdd818484611ca0565b505050565b5b81811015611d0157611cf6600082611cca565b600181019050611ce3565b5050565b601f821115611d4657611d1781611be6565b611d2084611bfb565b81016020851015611d2f578190505b611d43611d3b85611bfb565b830182611ce2565b50505b505050565b600082821c905092915050565b6000611d6960001984600802611d4b565b1980831691505092915050565b6000611d828383611d58565b9150826002028217905092915050565b611d9b82611208565b67ffffffffffffffff811115611db457611db361163c565b5b611dbe8254611adb565b611dc9828285611d05565b600060209050601f831160018114611dfc5760008415611dea578287015190505b611df48582611d76565b865550611e5c565b601f198416611e0a86611be6565b60005b82811015611e3257848901518255600182019150602085019450602081019050611e0d565b86831015611e4f5784890151611e4b601f891682611d58565b8355505b6001600288020188555050505b50505050505056fea264697066735822122077d9e5e5a3c70984619ba8cfa194140c768cc63b5796421b4bec141f85075b6764736f6c63430008130033",
  "immutableReferences": {},
  "source": "// SPDX-License-Identifier: MIT\npragma solidity >=0.4.22 <0.9.0;\n\ncontract poultry {\n\n  string[] _cretailers;\n  address[] _consumers;\n  string[] _cnames;\n  string[] _clocations;\n  string[] _ckgs;\n  string[] _cproducttypes;\n  uint[] _corderids;\n  uint[] _cstatuses;\n  string[] _consumeremails;\n\n  address[] _oretailers;\n  string[] _onames;\n  string[] _olcations;\n  string[] _okgs;\n  string[] _oproducttypes;\n  uint[] _oorderids;\n  uint[] _ostatuses;\n  string[] _oemails;\n\n\n  uint orderid;\n  uint oorderid;\n\n  constructor() {\n    orderid=0;\n    oorderid=0;\n  }\n\n  function addConsumer(string memory cemail,string memory cretailer,address consumer,string memory cname,string memory clocation,string memory ckg,string memory cproducttype) public {\n    orderid+=1;\n    _consumeremails.push(cemail);\n    _cretailers.push(cretailer);\n    _corderids.push(orderid);\n    _consumers.push(consumer);\n    _cnames.push(cname);\n    _clocations.push(clocation);\n    _ckgs.push(ckg);\n    _cproducttypes.push(cproducttype);\n    _cstatuses.push(0);\n  }\n\n  function viewConsumers() public view returns (string[] memory,string[] memory,uint[] memory,uint[] memory,address[] memory,string[] memory,string[] memory,string[] memory,string[] memory){\n    return(_consumeremails,_cretailers,_cstatuses,_corderids,_consumers,_cnames,_clocations,_ckgs,_cproducttypes);\n  }\n\n  function updateOrder1(uint cid,uint cstatus) public {\n    uint i;\n\n    for(i=0;i<_corderids.length;i++){\n      if(_corderids[i]==cid){\n        _cstatuses[i]=cstatus;\n      }\n    }\n  }\n\n  function addOrder(string memory oemail,address retailer,string memory rname,string memory rlocation,string memory rkgs,string memory rtype) public {\n    oorderid+=1;\n    _oemails.push(oemail);\n    _oorderids.push(oorderid);\n    _okgs.push(rkgs);\n    _olcations.push(rlocation);\n    _onames.push(rname);\n    _oretailers.push(retailer);\n    _oproducttypes.push(rtype);\n    _ostatuses.push(0);\n  }\n\n  function viewOrders() public view returns(string[] memory,uint[] memory,address[] memory,uint[] memory,string[] memory,string[] memory,string[] memory,string[] memory) {\n    return(_oemails,_oorderids,_oretailers,_ostatuses,_onames,_olcations,_oproducttypes,_okgs);\n  }\n\n  function updateOrder(uint oid,uint status) public {\n    uint i;\n\n    for(i=0;i<_oorderids.length;i++){\n      if(_oorderids[i]==oid){\n        _ostatuses[i]=status;\n      }\n    }\n  }\n}\n",
  "sourcePath": "C:\\Users\\revat\\Downloads\\FINALYEARPROJECT\\poultry-kits-blockchain-main\\contracts\\poultry.sol",
  "compiler": {
    "name": "solc",
    "version": "0.8.19+commit.7dd6d404.Emscripten.clang"
  },
  "schemaVersion": "3.4.16",
  "updatedAt": "2024-04-17T10:06:14.545Z",
  "networkType": "ethereum",
  "devdoc": {
    "kind": "dev",
    "methods": {},
    "version": 1
  },
  "userdoc": {
    "kind": "user",
    "methods": {},
    "version": 1
  }
}